:020000020000FC
:10000000BAC000C0F8940F931F932F930FB70F93AC
:1000100019E09FD09ED09DD08894B29908941A95EB
:1000200011F00795F7CF62D000E40ABF0F910FBF20
:100030002F911F910F9178941895BB98C39A0895AA
:10004000C398BB9A0895B39BFECF0895B399FECF92
:100050000895BC98C49A0895C498BC9A0895B49B16
:10006000FECF0895B499FECF089518E026B3287105
:100070002831E1F3B49B07C0089407956AD0ECDF00
:10008000E2DFE7DF06C08894079563D0D9DFE7DFBA
:10009000D4DF1A9559F7D1DFDCDF089518E0069513
:1000A00048F4CEDF56D0DEDF54D0C7DF52D0D7DFE2
:1000B00050D008C0D1DF4DD0C9DF4BD0CADF49D006
:1000C000C2DF47D006951A9559F7B7DFC2DF08950A
:1000D000BD1721F4AC1711F4002708950D91B0302D
:1000E00024F4A43C14F4BB27A0E608950993D0306F
:1000F00024F4C43C14F4DD27C0E6DB1749F4CA1726
:1001000039F41D91B03024F4A43C14F4BB27A0E6CC
:100110000895F8941AE00095089410F4C19802C06C
:10012000C19A000016D015D006951A95B1F77894AB
:100130000895F89419E0B299FECF0BD00AD009D0F7
:100140008894B29908941A9511F00795F7CF78948E
:10015000089523E02A950000000000000000000040
:10016000C9F70895002411240A94F1F71A94E1F7CD
:100170000A95D1F708950FE50DBF03E007BBC09ABC
:100180005CDF67DF01E005BF00E40BBFC19ABB275E
:10019000A0E6DD27C0E6789426B32871283111F057
:1001A00064DFB7DFAC1719F4BD1709F4F5CF90DFA2
:0401B00075DFF2CF36
:00000001FF
